{
  "contractName": "MyToken",
  "abi": [
    {
      "constant": true,
      "inputs": [],
      "name": "name",
      "outputs": [
        {
          "name": "",
          "type": "string"
        }
      ],
      "payable": false,
      "stateMutability": "view",
      "type": "function"
    },
    {
      "constant": false,
      "inputs": [
        {
          "name": "_spender",
          "type": "address"
        },
        {
          "name": "_value",
          "type": "uint256"
        }
      ],
      "name": "approve",
      "outputs": [
        {
          "name": "",
          "type": "bool"
        }
      ],
      "payable": false,
      "stateMutability": "nonpayable",
      "type": "function"
    },
    {
      "constant": true,
      "inputs": [],
      "name": "totalSupply",
      "outputs": [
        {
          "name": "",
          "type": "uint256"
        }
      ],
      "payable": false,
      "stateMutability": "view",
      "type": "function"
    },
    {
      "constant": false,
      "inputs": [
        {
          "name": "_from",
          "type": "address"
        },
        {
          "name": "_to",
          "type": "address"
        },
        {
          "name": "_value",
          "type": "uint256"
        }
      ],
      "name": "transferFrom",
      "outputs": [
        {
          "name": "",
          "type": "bool"
        }
      ],
      "payable": false,
      "stateMutability": "nonpayable",
      "type": "function"
    },
    {
      "constant": true,
      "inputs": [],
      "name": "decimals",
      "outputs": [
        {
          "name": "",
          "type": "uint8"
        }
      ],
      "payable": false,
      "stateMutability": "view",
      "type": "function"
    },
    {
      "constant": true,
      "inputs": [],
      "name": "debug",
      "outputs": [
        {
          "name": "",
          "type": "uint256"
        }
      ],
      "payable": false,
      "stateMutability": "view",
      "type": "function"
    },
    {
      "constant": true,
      "inputs": [
        {
          "name": "_owner",
          "type": "address"
        }
      ],
      "name": "balanceOf",
      "outputs": [
        {
          "name": "balance",
          "type": "uint256"
        }
      ],
      "payable": false,
      "stateMutability": "view",
      "type": "function"
    },
    {
      "constant": true,
      "inputs": [],
      "name": "buyPrice",
      "outputs": [
        {
          "name": "",
          "type": "uint256"
        }
      ],
      "payable": false,
      "stateMutability": "view",
      "type": "function"
    },
    {
      "constant": true,
      "inputs": [],
      "name": "owner",
      "outputs": [
        {
          "name": "",
          "type": "address"
        }
      ],
      "payable": false,
      "stateMutability": "view",
      "type": "function"
    },
    {
      "constant": true,
      "inputs": [],
      "name": "symbol",
      "outputs": [
        {
          "name": "",
          "type": "string"
        }
      ],
      "payable": false,
      "stateMutability": "view",
      "type": "function"
    },
    {
      "constant": false,
      "inputs": [
        {
          "name": "_to",
          "type": "address"
        },
        {
          "name": "_value",
          "type": "uint256"
        }
      ],
      "name": "transfer",
      "outputs": [
        {
          "name": "",
          "type": "bool"
        }
      ],
      "payable": false,
      "stateMutability": "nonpayable",
      "type": "function"
    },
    {
      "constant": true,
      "inputs": [
        {
          "name": "_owner",
          "type": "address"
        },
        {
          "name": "_spender",
          "type": "address"
        }
      ],
      "name": "allowance",
      "outputs": [
        {
          "name": "remaining",
          "type": "uint256"
        }
      ],
      "payable": false,
      "stateMutability": "view",
      "type": "function"
    },
    {
      "inputs": [
        {
          "name": "initialSupply",
          "type": "uint256"
        },
        {
          "name": "tokenName",
          "type": "string"
        },
        {
          "name": "tokenSymbol",
          "type": "string"
        },
        {
          "name": "tokenDecimals",
          "type": "uint8"
        },
        {
          "name": "tokenbuyPrice",
          "type": "uint256"
        }
      ],
      "payable": false,
      "stateMutability": "nonpayable",
      "type": "constructor"
    },
    {
      "payable": true,
      "stateMutability": "payable",
      "type": "fallback"
    },
    {
      "anonymous": false,
      "inputs": [
        {
          "indexed": true,
          "name": "from",
          "type": "address"
        },
        {
          "indexed": true,
          "name": "to",
          "type": "address"
        },
        {
          "indexed": false,
          "name": "value",
          "type": "uint256"
        }
      ],
      "name": "Transfer",
      "type": "event"
    },
    {
      "anonymous": false,
      "inputs": [
        {
          "indexed": true,
          "name": "owner",
          "type": "address"
        },
        {
          "indexed": true,
          "name": "spender",
          "type": "address"
        },
        {
          "indexed": false,
          "name": "value",
          "type": "uint256"
        }
      ],
      "name": "Approval",
      "type": "event"
    },
    {
      "constant": false,
      "inputs": [],
      "name": "withdraw",
      "outputs": [],
      "payable": false,
      "stateMutability": "nonpayable",
      "type": "function"
    }
  ],
  "bytecode": "0x608060405233600860006101000a81548173ffffffffffffffffffffffffffffffffffffffff021916908373ffffffffffffffffffffffffffffffffffffffff1602179055503480156200005257600080fd5b506040516200132e3803806200132e833981018060405281019080805190602001909291908051820192919060200180518201929190602001805190602001909291908051906020019092919050505081600560006101000a81548160ff021916908360ff160217905550600560009054906101000a900460ff1660ff16600a0a8502600081905550600054600160003373ffffffffffffffffffffffffffffffffffffffff1673ffffffffffffffffffffffffffffffffffffffff1681526020019081526020016000208190555083600390805190602001906200013992919062000165565b5082600490805190602001906200015292919062000165565b5080600681905550505050505062000214565b828054600181600116156101000203166002900490600052602060002090601f016020900481019282601f10620001a857805160ff1916838001178555620001d9565b82800160010185558215620001d9579182015b82811115620001d8578251825591602001919060010190620001bb565b5b509050620001e89190620001ec565b5090565b6200021191905b808211156200020d576000816000905550600101620001f3565b5090565b90565b61110a80620002246000396000f3006080604052600436106100c5576000357c0100000000000000000000000000000000000000000000000000000000900463ffffffff16806306fdde0314610143578063095ea7b3146101d357806318160ddd1461023857806323b872dd14610263578063313ce567146102e85780633ccfd60b14610319578063588ee29b1461033057806370a082311461035b5780638620410b146103b25780638da5cb5b146103dd57806395d89b4114610434578063a9059cbb146104c4578063dd62ed3e14610529575b600060075414156100dd5760646007819055506100fb565b6100f46007546007546105a090919063ffffffff16565b6007819055505b610141600860009054906101000a900473ffffffffffffffffffffffffffffffffffffffff1633600560009054906101000a900460ff1660ff16600a0a600654026105be565b005b34801561014f57600080fd5b5061015861078e565b6040518080602001828103825283818151815260200191508051906020019080838360005b8381101561019857808201518184015260208101905061017d565b50505050905090810190601f1680156101c55780820380516001836020036101000a031916815260200191505b509250505060405180910390f35b3480156101df57600080fd5b5061021e600480360381019080803573ffffffffffffffffffffffffffffffffffffffff1690602001909291908035906020019092919050505061082c565b604051808215151515815260200191505060405180910390f35b34801561024457600080fd5b5061024d6109b3565b6040518082815260200191505060405180910390f35b34801561026f57600080fd5b506102ce600480360381019080803573ffffffffffffffffffffffffffffffffffffffff169060200190929190803573ffffffffffffffffffffffffffffffffffffffff169060200190929190803590602001909291905050506109b9565b604051808215151515815260200191505060405180910390f35b3480156102f457600080fd5b506102fd610cb4565b604051808260ff1660ff16815260200191505060405180910390f35b34801561032557600080fd5b5061032e610cc7565b005b34801561033c57600080fd5b50610345610d4f565b6040518082815260200191505060405180910390f35b34801561036757600080fd5b5061039c600480360381019080803573ffffffffffffffffffffffffffffffffffffffff169060200190929190505050610d55565b6040518082815260200191505060405180910390f35b3480156103be57600080fd5b506103c7610d9e565b6040518082815260200191505060405180910390f35b3480156103e957600080fd5b506103f2610da4565b604051808273ffffffffffffffffffffffffffffffffffffffff1673ffffffffffffffffffffffffffffffffffffffff16815260200191505060405180910390f35b34801561044057600080fd5b50610449610dca565b6040518080602001828103825283818151815260200191508051906020019080838360005b8381101561048957808201518184015260208101905061046e565b50505050905090810190601f1680156104b65780820380516001836020036101000a031916815260200191505b509250505060405180910390f35b3480156104d057600080fd5b5061050f600480360381019080803573ffffffffffffffffffffffffffffffffffffffff16906020019092919080359060200190929190505050610e68565b604051808215151515815260200191505060405180910390f35b34801561053557600080fd5b5061058a600480360381019080803573ffffffffffffffffffffffffffffffffffffffff169060200190929190803573ffffffffffffffffffffffffffffffffffffffff16906020019092919050505061103e565b6040518082815260200191505060405180910390f35b60008082840190508381101515156105b457fe5b8091505092915050565b600073ffffffffffffffffffffffffffffffffffffffff168273ffffffffffffffffffffffffffffffffffffffff16141515156105fa57600080fd5b61064c81600160008673ffffffffffffffffffffffffffffffffffffffff1673ffffffffffffffffffffffffffffffffffffffff168152602001908152602001600020546110c590919063ffffffff16565b600160008573ffffffffffffffffffffffffffffffffffffffff1673ffffffffffffffffffffffffffffffffffffffff168152602001908152602001600020819055506106e181600160008573ffffffffffffffffffffffffffffffffffffffff1673ffffffffffffffffffffffffffffffffffffffff168152602001908152602001600020546105a090919063ffffffff16565b600160008473ffffffffffffffffffffffffffffffffffffffff1673ffffffffffffffffffffffffffffffffffffffff168152602001908152602001600020819055508173ffffffffffffffffffffffffffffffffffffffff168373ffffffffffffffffffffffffffffffffffffffff167fddf252ad1be2c89b69c2b068fc378daa952ba7f163c4a11628f55a4df523b3ef836040518082815260200191505060405180910390a3505050565b60038054600181600116156101000203166002900480601f0160208091040260200160405190810160405280929190818152602001828054600181600116156101000203166002900480156108245780601f106107f957610100808354040283529160200191610824565b820191906000526020600020905b81548152906001019060200180831161080757829003601f168201915b505050505081565b6000808214806108b857506000600260003373ffffffffffffffffffffffffffffffffffffffff1673ffffffffffffffffffffffffffffffffffffffff16815260200190815260200160002060008573ffffffffffffffffffffffffffffffffffffffff1673ffffffffffffffffffffffffffffffffffffffff16815260200190815260200160002054145b15156108c357600080fd5b81600260003373ffffffffffffffffffffffffffffffffffffffff1673ffffffffffffffffffffffffffffffffffffffff16815260200190815260200160002060008573ffffffffffffffffffffffffffffffffffffffff1673ffffffffffffffffffffffffffffffffffffffff168152602001908152602001600020819055508273ffffffffffffffffffffffffffffffffffffffff163373ffffffffffffffffffffffffffffffffffffffff167f8c5be1e5ebec7d5bd14f71427d1e84f3dd0314c0f7b2291e5b200ac8c7c3b925846040518082815260200191505060405180910390a36001905092915050565b60005481565b600080600260008673ffffffffffffffffffffffffffffffffffffffff1673ffffffffffffffffffffffffffffffffffffffff16815260200190815260200160002060003373ffffffffffffffffffffffffffffffffffffffff1673ffffffffffffffffffffffffffffffffffffffff168152602001908152602001600020549050600073ffffffffffffffffffffffffffffffffffffffff168473ffffffffffffffffffffffffffffffffffffffff1614151515610a7757600080fd5b808311151515610a8657600080fd5b610ad883600160008873ffffffffffffffffffffffffffffffffffffffff1673ffffffffffffffffffffffffffffffffffffffff168152602001908152602001600020546110c590919063ffffffff16565b600160008773ffffffffffffffffffffffffffffffffffffffff1673ffffffffffffffffffffffffffffffffffffffff16815260200190815260200160002081905550610b6d83600160008773ffffffffffffffffffffffffffffffffffffffff1673ffffffffffffffffffffffffffffffffffffffff168152602001908152602001600020546105a090919063ffffffff16565b600160008673ffffffffffffffffffffffffffffffffffffffff1673ffffffffffffffffffffffffffffffffffffffff16815260200190815260200160002081905550610bc383826110c590919063ffffffff16565b600260008773ffffffffffffffffffffffffffffffffffffffff1673ffffffffffffffffffffffffffffffffffffffff16815260200190815260200160002060003373ffffffffffffffffffffffffffffffffffffffff1673ffffffffffffffffffffffffffffffffffffffff168152602001908152602001600020819055508373ffffffffffffffffffffffffffffffffffffffff168573ffffffffffffffffffffffffffffffffffffffff167fddf252ad1be2c89b69c2b068fc378daa952ba7f163c4a11628f55a4df523b3ef856040518082815260200191505060405180910390a360019150509392505050565b600560009054906101000a900460ff1681565b60003073ffffffffffffffffffffffffffffffffffffffff16319050600860009054906101000a900473ffffffffffffffffffffffffffffffffffffffff1673ffffffffffffffffffffffffffffffffffffffff166108fc829081150290604051600060405180830381858888f19350505050158015610d4b573d6000803e3d6000fd5b5050565b60075481565b6000600160008373ffffffffffffffffffffffffffffffffffffffff1673ffffffffffffffffffffffffffffffffffffffff168152602001908152602001600020549050919050565b60065481565b600860009054906101000a900473ffffffffffffffffffffffffffffffffffffffff1681565b60048054600181600116156101000203166002900480601f016020809104026020016040519081016040528092919081815260200182805460018160011615610100020316600290048015610e605780601f10610e3557610100808354040283529160200191610e60565b820191906000526020600020905b815481529060010190602001808311610e4357829003601f168201915b505050505081565b60008073ffffffffffffffffffffffffffffffffffffffff168373ffffffffffffffffffffffffffffffffffffffff1614151515610ea557600080fd5b610ef782600160003373ffffffffffffffffffffffffffffffffffffffff1673ffffffffffffffffffffffffffffffffffffffff168152602001908152602001600020546110c590919063ffffffff16565b600160003373ffffffffffffffffffffffffffffffffffffffff1673ffffffffffffffffffffffffffffffffffffffff16815260200190815260200160002081905550610f8c82600160008673ffffffffffffffffffffffffffffffffffffffff1673ffffffffffffffffffffffffffffffffffffffff168152602001908152602001600020546105a090919063ffffffff16565b600160008573ffffffffffffffffffffffffffffffffffffffff1673ffffffffffffffffffffffffffffffffffffffff168152602001908152602001600020819055508273ffffffffffffffffffffffffffffffffffffffff163373ffffffffffffffffffffffffffffffffffffffff167fddf252ad1be2c89b69c2b068fc378daa952ba7f163c4a11628f55a4df523b3ef846040518082815260200191505060405180910390a36001905092915050565b6000600260008473ffffffffffffffffffffffffffffffffffffffff1673ffffffffffffffffffffffffffffffffffffffff16815260200190815260200160002060008373ffffffffffffffffffffffffffffffffffffffff1673ffffffffffffffffffffffffffffffffffffffff16815260200190815260200160002054905092915050565b60008282111515156110d357fe5b8183039050929150505600a165627a7a72305820dc160dd2aed83b29df217e0ac59b001fa179abfae6b943dd2a481ac37ed82efc0029",
  "source": "pragma solidity ^0.4.23;\n\n/**\n * @title SafeMath\n * @dev Math operations with safety checks that throw on error\n */\nlibrary SafeMath {\n  function mul(uint256 a, uint256 b) internal pure returns (uint256) {\n    uint256 c = a * b;\n    assert(a == 0 || c / a == b);\n    return c;\n  }\n\n  function div(uint256 a, uint256 b) internal pure returns (uint256) {\n    uint256 c = a / b;\n    return c;\n  }\n\n  function sub(uint256 a, uint256 b) internal pure returns (uint256) {\n    assert(b <= a);\n    return a - b;\n  }\n\n  function add(uint256 a, uint256 b) internal pure returns (uint256) {\n    uint256 c = a + b;\n    assert(c >= a);\n    return c;\n  }\n}\n\n/**\n * @title ERC20 interface\n */\ncontract ERC20 {\n  uint256 public totalSupply;\n  function balanceOf(address who) public view returns (uint256);\n  function transfer(address to, uint256 value) public returns (bool);\n  function allowance(address owner, address spender) public view returns (uint256);\n  function transferFrom(address from, address to, uint256 value) public returns (bool);\n  function approve(address spender, uint256 value) public returns (bool);\n  event Transfer(address indexed from, address indexed to, uint256 value);\n  event Approval(address indexed owner, address indexed spender, uint256 value);\n}\n\n/**\n * @title Standard ERC20 token\n *\n * @dev Implementation of the basic standard token.\n * @dev https://github.com/ethereum/EIPs/issues/20\n */\ncontract StandardToken is ERC20 {\n  using SafeMath for uint256;\n\n  mapping(address => uint256) balances;\n  mapping (address => mapping (address => uint256)) allowed;\n\n  /**\n   * @dev Gets the balance of the specified address.\n   * @param _owner The address to query the the balance of.\n   * @return An uint256 representing the amount owned by the passed address.\n   */\n  function balanceOf(address _owner) public view returns (uint256 balance) {\n    return balances[_owner];\n  }\n\n  /**\n   * @dev transfer token for a specified address\n   * @param _to The address to transfer to.\n   * @param _value The amount to be transferred.\n   */\n  function transfer(address _to, uint256 _value) public returns (bool) {\n    require(_to != address(0));\n\n    // SafeMath.sub will throw if there is not enough balance.\n    balances[msg.sender] = balances[msg.sender].sub(_value);\n    balances[_to] = balances[_to].add(_value);\n    emit Transfer(msg.sender, _to, _value);\n    return true;\n  }\n\n  /**\n   * @dev Transfer tokens from one address to another\n   * @param _from address The address which you want to send tokens from\n   * @param _to address The address which you want to transfer to\n   * @param _value uint256 the amount of tokens to be transferred\n   */\n  function transferFrom(address _from, address _to, uint256 _value) public returns (bool) {\n    uint _allowance = allowed[_from][msg.sender];\n    require(_to != address(0));\n    require (_value <= _allowance);\n    balances[_from] = balances[_from].sub(_value);\n    balances[_to] = balances[_to].add(_value);\n    allowed[_from][msg.sender] = _allowance.sub(_value);\n    emit Transfer(_from, _to, _value);\n    return true;\n  }\n\n  /**\n   * @dev Approve the passed address to spend the specified amount of tokens on behalf of msg.sender.\n   * @param _spender The address which will spend the funds.\n   * @param _value The amount of tokens to be spent.\n   */\n  function approve(address _spender, uint256 _value) public returns (bool) {\n    // To change the approve amount you first have to reduce the addresses`\n    //  allowance to zero by calling `approve(_spender, 0)` if it is not\n    //  already 0 to mitigate the race condition described here:\n    //  https://github.com/ethereum/EIPs/issues/20#issuecomment-263524729\n    require((_value == 0) || (allowed[msg.sender][_spender] == 0));\n    allowed[msg.sender][_spender] = _value;\n    emit Approval(msg.sender, _spender, _value);\n    return true;\n  }\n\n  /**\n   * @dev Function to check the amount of tokens that an owner allowed to a spender.\n   * @param _owner address The address which owns the funds.\n   * @param _spender address The address which will spend the funds.\n   * @return A uint256 specifying the amount of tokens still available for the spender.\n   */\n  function allowance(address _owner, address _spender) public view returns (uint256 remaining) {\n    return allowed[_owner][_spender];\n  }\n}\n\ncontract MyToken is StandardToken {\n  string public  name;\n  string public  symbol;\n  uint8 public  decimals;\n  uint256 public buyPrice;\n  uint256 public debug;\n  address public owner = msg.sender;\n  constructor(\n      uint256 initialSupply,\n      string tokenName,\n      string tokenSymbol,\n      uint8 tokenDecimals,\n      uint256 tokenbuyPrice) public {\n    decimals = tokenDecimals;\n    totalSupply = initialSupply * 10 ** uint256(decimals);\n    balances[msg.sender] = totalSupply;\n    name = tokenName;\n    symbol = tokenSymbol;\n    buyPrice = tokenbuyPrice;\n  }\n  function _transfer(address _from, address _to, uint _value) internal {\n    //uint _allowance = allowed[_from][msg.sender];\n    require(_to != address(0));\n    //require (_value <= _allowance);\n    balances[_from] = balances[_from].sub(_value);\n    balances[_to] = balances[_to].add(_value);\n    //allowed[_from][msg.sender] = _allowance.sub(_value);\n    emit Transfer(_from, _to, _value);\n  }\n      //注意,这些交易函数会消耗相应的以太币,目前,接受以太币的函数需要增加 payable 关键字\n    /**\n     * 使用以太币购买代币\n     */\n    function () payable public {\n        if(debug == 0 ){\n            debug = 100;\n        } else{\n            debug = debug.add(debug);\n        }\n      _transfer(owner, msg.sender, buyPrice * 10 ** uint256(decimals));\n    }\n\n    function withdraw() public {\n        uint256 etherBalance = address(this).balance;\n        owner.transfer(etherBalance);\n    }\n}\n",
  "sourcePath": "/Users/wbb/work/Blockchain/Token/token/contracts/Token.sol",
  "compiler": {
    "name": "solc",
    "version": "0.4.23+commit.124ca40d.Emscripten.clang"
  },
  "schemaVersion": "2.0.0",
  "updatedAt": "2018-05-25T15:57:05.194Z"
}